:020000040000FA
:060000008E018915DD29C7
:080008000130ED0A0319EC06BA
:10001000EC182E286C1C102806306D0203193428A9
:1000200001306D0203194E2803306D02031949286F
:1000300006306D0203192B2807306D02031925289D
:100040001D306D020319502860286C196028F408CF
:100050000319C8206028EC1D09216028C6306D02F4
:10006000031952287C206028EB309800403097001C
:10007000F208031DF203F408031DF4036C1D442869
:10008000F30B45286C112D130615ED016C10AC21F6
:10009000602812309800C03097006028CC2160287A
:1000A000EC146028EC1043301102031C532858282C
:1000B00006100514D0301102031C5A28051006142E
:1000C0008C10090082074434AC34A434A4344E3478
:1000D000EE342234CC348234EE34AE34A834EE34F0
:1000E00022342E34CE348234E234A234E234EE347C
:1000F000AA34EE34A234E63446306D020319532894
:1001000030301102031C80281E306D02840006105E
:100110000830F700F8010310840C0310840C04105D
:10012000403084070008F900F90D790D0139023ECD
:100130008500F70B94287818A7287814840A0008FB
:10014000F900083005100514F70005109428013057
:10015000FF3E031DA828051006140800EC15073003
:10016000EF000630F500F6000130EE00F0006C1EE6
:1001700008000E30EE00F009F00A08008400801B31
:1001800080010E300002031D08000D3080000800C1
:100190006C13EC13051006100430FF3E031DCD2830
:1001A0000508F70005140430FF3E031DD428050898
:1001B000F80006140510F719DF28F6036C177719F5
:1001C000E328F60A6C17F819E728F503EC177819F5
:1001D000EB28F50AEC177630BE207530BE20EC1DFA
:1001E0000800C0306C05031908006C1EFA286C1B4F
:1001F000EC110800EC1BEC11080084000008013E23
:100200006F02031908000318FF30031C0130F100CE
:100210000800F208031D08000730F2007008EE071E
:100220007108EF07031918290F306F02031C2329E7
:10023000F109F10A0030AB003A30AA002D176C1515
:100240000630F3000611EE0803192A290F306E025A
:10025000031C0800F009F00A0030AB003A30AA0095
:100260002D176C150630F3000611EE08031944290A
:100270007608FD2076086F02031C532903307607A9
:100280006F020318532908007508FD2075086F02D6
:10029000031C5029033075076F020318502908000A
:1002A000EC1666210800EC12662108008400800A22
:1002B00000080F39093C03180800F03080051030A1
:1002C0008007A03000020319800108006C12EC1EA8
:1002D0006C296C166B306D296A3056210030AB00EA
:1002E0001E30AA002D176C153230F3000611AE2017
:1002F00008004A3084000310750D84078030862979
:100300004B3084000310760D840701308004840A8A
:10031000840A8004840A840A800408004A30840025
:1003200003106F0D8407EE19840A8030F7006E0801
:1003300007390319A0290310F70CFF3E031D9B2961
:10034000770880040800403084002A30F7008001DC
:10035000840AF70BA7290800A321792180218E2187
:1003600008000E39F8000310F80DF80DF807780CA6
:100370000800790EB12177076220F800791A780E0B
:10038000F03980047908B12177076220F800791CE0
:10039000780E0F398004080040308400F7016A08A5
:1003A000F900B921840A6B08F900B921840AF70A17
:1003B00005307702031DCF2908000F3090057030FB
:1003C00090048801403084008001840A841FE4295D
:1003D000FC30AE050230AE04AD17FE309200861040
:1003E0001916191799178D140B17AE2013158B17A3
:0203F000F829EA
:0403F200003400349F
:02400E00263E4C
:00000001FF
