:020000040000FA
:060000008E018915E029C4
:080008000130ED0A0319EC06BA
:10001000EC182E286C1C102806306D0203193428A9
:1000200001306D0203194E2803306D02031949286F
:1000300006306D0203192B2807306D02031925289D
:100040001D306D020319502860286C196028F408CF
:100050000319C8206028EC1D06216028C6306D02F7
:10006000031952287C206028EB309800403097001C
:10007000F208031DF203F408031DF4036C1D442869
:10008000F30B45286C112D130615ED016C10AF21F3
:10009000602812309800C03097006028CF21602877
:1000A000EC146028EC1043301102031C532858282C
:1000B00006100514D0301102031C5A28051006142E
:1000C0008C10090082074434AC34A434A4344E3478
:1000D000EE342234CC348234EE34AE34A834EE34F0
:1000E00022342E34CE348234E234A234E234EE347C
:1000F000AA34EE34A234E63446306D020319532894
:1001000030301102031C80281E306D02840006105E
:100110000830F700F8010310840C0310840C04105D
:10012000403084070008F900F90D790D0139023ECD
:100130008500F70B94287818A7287814840A0008FB
:10014000F900083005100514F70005109428013057
:10015000FF3E031DA828051006140800EC15073003
:10016000EF000630F500F6000130EE00F0006C1EE6
:1001700008000E30EE00F009F00A08008400801B31
:1001800080010E300002031D08000D3080000800C1
:100190006C13051006100430FF3E031DCC28050823
:1001A000F70005140430FF3E031DD3280508F800AE
:1001B00006140510F719DF28F6036C1A6C17771967
:1001C000E428F60A6C1A6C17F819E928F5036C1E76
:1001D0006C177819EE28F50A6C1E6C176C1FF52841
:1001E000EC1DF528EC117008EE077630BE20753056
:1001F000BE20080084000008013E6F0203190800B9
:100200000318FF30031C0130F1000800F208031D41
:1002100008007108F7000A30F2007008EE07710854
:10022000EF07031917290F306F02031C2229F10968
:10023000F10A0030AB003A30AA002D176C150630D9
:10024000F3000611EE08031929290F306E02031D71
:100250000800F009F00A0030AB003A30AA002D1770
:100260006C150630F3000611EE08031945297608CF
:10027000FA20770876076F02031C562903307607A9
:1002800077076F020318562908007508FA207708C7
:1002900075076F02031C53290330750777076F0238
:1002A000031853290800EC1669210800EC12692193
:1002B00008008400800A00080F39093C0318080070
:1002C000F030800510308007A03000020319800153
:1002D00008006C12EC1E6F296C166B3070296A30A6
:1002E00059210030AB001E30AA002D176C1532309A
:1002F000F3000611AE2008004A3084000310750D8B
:100300008407803089294B3084000310760D8407E0
:1003100001308004840A840A8004840A840A8004E8
:1003200008004A30840003106F0D8407EE19840A18
:100330008030F7006E0807390319A3290310F70C62
:10034000FF3E031D9E29770880040800403084008A
:100350002A30F7008001840AF70BAA290800A62199
:100360007C218321912108000E39F8000310F80D3B
:10037000F80DF807780C0800790EB4217707622091
:10038000F800791A780EF03980047908B4217707DB
:100390006220F800791C780E0F3980040800403084
:1003A0008400F7016A08F900BC21840A6B08F9008F
:1003B000BC21840AF70A05307702031DD229080000
:1003C0000F30900570309004880140308400800127
:1003D000840A841FE729FC30AE050230AE04AD1755
:1003E000FE30920086101916191799178D140B17E5
:0803F000AE2013158B17FB2949
:0403F8000034003499
:02400E00263E4C
:00000001FF
